:020000040800F2
:1000000000500020350C000841090008490900088B
:1000100051090008590900086109000800000000A2
:100020000000000000000000000000006909000856
:100030007509000800000000810900088D0900080A
:100040007D0C00087D0C00087D0C00087D0C00086C
:100050007D0C00087D0C00087D0C00087D0C00085C
:100060007D0C00087D0C00087D0C00087D0C00084C
:100070007D0C00087D0C00087D0C00087D0C00083C
:100080007D0C00087D0C00087D0C00087D0C00082C
:100090007D0C00087D0C00087D0C00087D0C00081C
:1000A0007D0C00087D0C00087D0C00087D0C00080C
:1000B0007D0C00087D0C00087D0C00087D0C0008FC
:1000C0007D0C00087D0C00087D0C00087D0C0008EC
:1000D0007D0C00087D0C0008990900087D0C0008C3
:1000E0007D0C00087D0C00087D0C0008000000005D
:1000F0000000000000000000000000000000000000
:0C01000000000000000000005FF808F1A3
:10010C0010B5054C237833B9044B13B10448AFF345
:10011C0000800123237010BD6C0000200000000043
:10012C004043000808B5034B1BB103490348AFF328
:10013C00008008BD00000000700000204043000853
:10014C0010F8012B11F8013B012A28BF9A42F7D075
:10015C00D01A7047034613F8012B002AFBD1181A4A
:10016C000138704780B590B000AF78607B681B7821
:10017C007B2B40F013817B680133BB637D21B86B13
:10018C0002F00FFD78637B6B002B02D07B6B00229F
:10019C001A708449B86B02F011FDF863F9E007F1AD
:1001AC000C0307F120028049F86B02F081FC034636
:1001BC00022B40F0E98007F120037C491846FFF739
:1001CC00BFFF0346002B1AD107F10C0378491846E0
:1001DC00FFF7B6FF0346002B03D1764B00221A70B3
:1001EC00D2E007F10C0374491846FFF7A9FF034648
:1001FC00002B40F0C9806F4B01221A70C4E007F14C
:10020C0020036E491846FFF79BFF0346002B1AD1BB
:10021C0007F10C036A491846FFF792FF0346002BBF
:10022C0003D1684B00221A70AEE007F10C0366494B
:10023C001846FFF785FF0346002B40F0A580614B65
:10024C0001221A70A0E007F1200360491846FFF75D
:10025C0077FF0346002B1AD107F10C0358491846B7
:10026C00FFF76EFF0346002B03D1594B00221A7087
:10027C008AE007F10C0354491846FFF761FF034667
:10028C00002B40F08180524B01221A707CE007F168
:10029C00200350491846FFF753FF0346002B2DD17E
:1002AC0007F10C034C491846FFF74AFF0346002B95
:1002BC0003D14A4B01221A7066E007F10C0348493E
:1002CC001846FFF73DFF0346002B07D1434B002296
:1002DC001A70444B4FF4FA721A6055E007F10C0394
:1002EC0041491846FFF72CFF0346002B4CD13B4BE2
:1002FC0000221A703B4B4B221A6045E007F1200399
:10030C003A491846FFF71CFF0346002B1AD107F198
:10031C000C0337491846FFF713FF0346002B04D193
:10032C00344B4FF4FA721A602EE007F10C03324989
:10033C001846FFF705FF0346002B25D12D4BC8228D
:10034C001A6021E007F120032C491846FFF7F8FE4C
:10035C000346002B18D107F10C0319491846FFF777
:10036C00EFFE0346002B03D1254B00221A700BE045
:10037C0007F10C0314491846FFF7E2FE0346002B65
:10038C0002D11F4B01221A700649002002F016FC04
:10039C00F863FB6B002B7FF402AF00E000BF40372B
:1003AC00BD4680BD584300085C4300086C43000800
:1003BC007843000889020020804300088843000825
:1003CC00984300088A020020A4430008AC430008AC
:1003DC008B020020BC430008C4430008000000202E
:1003EC00CC430008A0020020D0430008D8430008EA
:1003FC00E4430008A4020020EC430008F04300088A
:10040C008C02002080B582B000AF78607B681B68DE
:10041C00204A93423AD1204B1B78DBB21A461F4B31
:10042C009B5C0A2B1ED11C4B1B78DBB21A461B4B58
:10043C000021995419491A4802F08FFC1848FFF70B
:10044C0091FE4FF0FF3303221649174801F054FC7C
:10045C00114B00221A704FF4807200210F4802F0E9
:10046C0098FB08E00C4B1B78DBB20133DAB20A4B79
:10047C001A70094B1B78084B1B78DBB21A46074BDA
:10048C00134401221946084801F0C1FC00BF08378B
:10049C00BD4680BD0044004088020020880000203A
:1004AC0088010020F8430008B002002080B582B01B
:1004BC0000AF274B1B78DBB21A46264B13440122A4
:1004CC001946254801F0A3FC0023FB7138E00122FA
:1004DC004FF40051214800F097FF01224FF4804166
:1004EC001E4800F091FF01224FF480511B4800F090
:1004FC008BFF00224FF40051194800F085FFC820F3
:10050C0000F01AFC00224FF40051144800F07CFF5C
:10051C0000224FF48041114800F076FF00224FF486
:10052C0080510E4800F070FF01224FF400510C482E
:10053C0000F06AFFC82000F0FFFBFB790133FB7170
:10054C00FB79072BC3D900BF00BF0837BD4680BD60
:10055C008802002088000020B0020020000C01401E
:10056C000010014080B582B000AF00F0DBFB78607A
:10057C00624B1B78002B1AD1614B1B687A68D31A1B
:10058C00C72B14D95E4A7B6813605E4B1B78002B1B
:10059C000CBF01230023DBB21A465A4B1A70594B7D
:1005AC001B781A464FF40051574800F02DFF534B5F
:1005BC001B78002B05D001224FF40051524800F05B
:1005CC0023FF524B1B78002B05D000224FF48041A7
:1005DC004D4800F019FF4D4B1B78002B1CD14C4B98
:1005EC001B687A68D21A4B4B1B689A4214D3484A40
:1005FC007B681360484B1B78002B0CBF0123002336
:10060C00DBB21A46444B1A70434B1B781A464FF414
:10061C0080413D4800F0F8FE404B1B78002B05D183
:10062C0000224FF48051384800F0EEFE3B4B1B7813
:10063C00012B09D13A4B1B78002B05D101224FF429
:10064C008051314800F0E0FE344B1B78012B20D157
:10065C00334B1B78012B1CD1324B1B687A68D21A96
:10066C00314B1B689A4214D32E4A7B6813602F4B74
:10067C001B78002B0CBF01230023DBB21A462B4B3B
:10068C001A702A4B1B781A464FF480511E4800F002
:10069C00BBFE274B1B78002B0BD100224FF40061C3
:1006AC00194800F0B1FE01224FF40051214800F02E
:1006BC00ABFE1F4B1B78002B1BD01F4B1B687A68A3
:1006CC00D31AB3F5FA7F14D31B4A7B6813601B4B08
:1006DC001B78002B0CBF01230023DBB21A46174BEF
:1006EC001A70164B1B781A464FF40061064800F03E
:1006FC008BFE00BF0837BD4680BD00BF89020020BD
:10070C0098020020AA020020000C014000000020EA
:10071C0090020020A0020020A80200208A020020E3
:10072C008B02002094020020A4020020A9020020C9
:10073C008C020020001001409C020020AB02002023
:10074C0080B588B000AF07F1100300221A605A6020
:10075C009A60DA602E4B9B692D4A43F0100393612B
:10076C002B4B9B6903F01003FB60FB68284B9B69C8
:10077C00274A43F020039361254B9B6903F0200328
:10078C00BB60BB68224B9B69214A43F00403936115
:10079C001F4B9B6903F004037B607B681C4B9B69BC
:1007AC001B4A43F008039361194B9B6903F0080340
:1007BC003B603B6800224FF40051164800F024FEC9
:1007CC0000224FF4F041144800F01EFE4FF4005389
:1007DC003B6101237B610023BB610223FB6107F1B9
:1007EC00100319460B4800F08BFC4FF4F0433B61AF
:1007FC0001237B610023BB610223FB6107F1100322
:10080C001946054800F07CFC00BF2037BD4680BD72
:10081C000010024000100140000C014080B500AFF8
:10082C0000F028FA00F009F8FFF78AFF00F080F9D1
:10083C00FFF73CFEFFF796FEFCE780B590B000AFEB
:10084C0007F1180328220021184602F0A2F93B1DDB
:10085C0000221A605A609A60DA601A610123BB6147
:10086C004FF48033FB6100233B620123BB62022304
:10087C007B634FF48033BB634FF4E013FB6307F1EE
:10088C001803184600F0D8FD0346002B01D000F0E9
:10089C0019F80F237B600223BB600023FB604FF42D
:1008AC0080633B6100237B613B1D0221184601F0F4
:1008BC0045F80346002B01D000F004F800BF403788
:1008CC00BD4680BD80B400AF72B600BF00BFFDE76F
:1008DC0080B485B000AF154B9B69144A43F00103FB
:1008EC009361124B9B6903F00103BB60BB680F4B18
:1008FC00DB690E4A43F08053D3610C4BDB6903F088
:10090C0080537B607B680A4B5B68FB60FB6823F061
:10091C00E063FB60FB6843F08063FB60044AFB68A8
:10092C00536000BF1437BD4680BC704700100240B6
:10093C000000014080B400AF00BFFDE780B400AF01
:10094C0000BFFDE780B400AF00BFFDE780B400AF8F
:10095C0000BFFDE780B400AF00BFFDE780B400AF7F
:10096C0000BFBD4680BC704780B400AF00BFBD4621
:10097C0080BC704780B400AF00BFBD4680BC7047E0
:10098C0080B500AF00F0BCF900BF80BD80B500AFF2
:10099C00024801F061FA00BF80BD00BFB002002028
:1009AC0080B400AF01231846BD4680BC704780B5AB
:1009BC0082B000AF7860396002F0A2F903461622CB
:1009CC001A604FF0FF3318460837BD4680BD80B51E
:1009DC0082B000AF78604FF0FF317868FFF7E7FF27
:1009EC0000BFFDE780B586B000AFF860B9607A60F3
:1009FC0000237B610AE0AFF300800146BB685A1C00
:100A0C00BA60CAB21A707B6901337B617A697B6800
:100A1C009A42F0DB7B6818461837BD4680BD80B51E
:100A2C0086B000AFF860B9607A6000237B6109E0A2
:100A3C00BB685A1CBA601B781846AFF300807B6900
:100A4C0001337B617A697B689A42F1DB7B681846DB
:100A5C001837BD4680BD80B483B000AF78604FF0CE
:100A6C00FF3318460C37BD4680BC704780B483B04A
:100A7C0000AF786039603B684FF400525A60002335
:100A8C0018460C37BD4680BC704780B483B000AFAD
:100A9C007860012318460C37BD4680BC704780B483
:100AAC0085B000AFF860B9607A600023184614373F
:100ABC00BD4680BC7047000080B586B000AF786042
:100ACC00144A154BD31A7B617B693B61134B1B6832
:100ADC00002B02D1114B124A1A60104B1A687B681A
:100AEC0013443A699A4207D202F00AF903460C22DF
:100AFC001A604FF0FF3309E0084B1B68FB60074B93
:100B0C001A687B681344054A1360FB68184618374B
:100B1C00BD4680BD0050002000040000AC02002047
:100B2C004804002080B400AF00BFBD4680BC7047B5
:100B3C0080B500AF114B124A1A60104B4FF4E132E2
:100B4C005A600E4B00229A600C4B0022DA600B4B61
:100B5C0000221A61094B0C225A61084B00229A613F
:100B6C00064B0022DA61054801F076F80346002BAB
:100B7C0001D0FFF7A7FE00BF80BD00BFB002002070
:100B8C000044004080B588B000AF786007F11003D6
:100B9C0000221A605A609A60DA607B681B681F4AF0
:100BAC00934237D11E4BDB691D4A43F40033D361AA
:100BBC001B4BDB6903F40033FB60FB68184B9B6930
:100BCC00174A43F004039361154B9B6903F004032C
:100BDC00BB60BB6804233B6102237B610323FB6185
:100BEC0007F1100319460F4800F08AFA08233B61FD
:100BFC0000237B610023BB6107F1100319460948F0
:100C0C0000F07EFA00220021262000F090F9262028
:100C1C0000F0A9F900BF2037BD4680BD004400405C
:100C2C000010024000080140FFF77CFF0B480C4904
:100C3C000C4A002302E0D458C4500433C4188C422C
:100C4C00F9D3094A094C002301E013600432A24293
:100C5C00FBD302F05BF8FFF7E1FD704700000020CA
:100C6C006C000020404600086C0000204804002066
:100C7C00FEE7000080B500AF084B1B68074A43F045
:100C8C0010031360032000F047F90F2000F008F860
:100C9C00FFF71EFE0023184680BD00BF0020024057
:100CAC0080B582B000AF7860124B1A68124B1B787B
:100CBC0019464FF47A73B3FBF1F3B2FBF3F3184616
:100CCC0000F05FF90346002B01D001230EE07B6896
:100CDC000F2B0AD8002279684FF0FF3000F027F96B
:100CEC00064A7B681360002300E00123184608378E
:100CFC00BD4680BD040000200C0000200800002030
:100D0C0080B400AF054B1B781A46054B1B68134487
:100D1C00034A136000BFBD4680BC70470C00002026
:100D2C00F802002080B400AF024B1B681846BD4689
:100D3C0080BC7047F802002080B584B000AF7860AA
:100D4C00FFF7F0FFB8607B68FB60FB68B3F1FF3F17
:100D5C0005D00A4B1B781A46FB681344FB6000BF96
:100D6C00FFF7E0FF0246BB68D31AFA689A42F7D83D
:100D7C0000BF00BF1037BD4680BD00BF0C00002077
:100D8C0080B485B000AF78607B6803F00703FB602C
:100D9C000C4BDB68BB60BA684FF6FF031340BB60BB
:100DAC00FB681A02BB68134343F0BF6343F4003380
:100DBC00BB60044ABB68D36000BF1437BD4680BC1F
:100DCC00704700BF00ED00E080B400AF044BDB685F
:100DDC001B0A03F007031846BD4680BC704700BFD2
:100DEC0000ED00E080B483B000AF0346FB7197F9CF
:100DFC000730002B0BDBFB7903F01F02064997F938
:100E0C0007305B09012000FA02F241F8232000BFF1
:100E1C000C37BD4680BC704700E100E080B483B065
:100E2C0000AF03463960FB7197F90730002B0ADBE2
:100E3C003B68DAB20C4997F907301201D2B20B4475
:100E4C0083F800230AE03B68DAB20849FB7903F027
:100E5C000F03043B1201D2B20B441A7600BF0C37BD
:100E6C00BD4680BC704700BF00E100E000ED00E033
:100E7C0080B489B000AFF860B9607A60FB6803F0A9
:100E8C000703FB61FB69C3F10703042B28BF042391
:100E9C00BB61FB690433062B02D9FB69033B00E001
:100EAC0000237B614FF0FF32BB6902FA03F3DA4394
:100EBC00BB681A407B699A404FF0FF317B6901FA9D
:100ECC0003F3D9437B680B40134318462437BD46C4
:100EDC0080BC704780B582B000AF78607B68013B06
:100EEC00B3F1807F01D301230FE00A4A7B68013BF9
:100EFC0053600F214FF0FF30FFF790FF054B00229E
:100F0C009A60044B07221A60002318460837BD4626
:100F1C0080BD00BF10E000E080B582B000AF78600B
:100F2C007868FFF72DFF00BF0837BD4680BD80B540
:100F3C0086B000AF0346B9607A60FB7300237B6117
:100F4C00FFF742FF78617A68B9687869FFF790FF1C
:100F5C00024697F90F3011461846FFF75FFF00BFA6
:100F6C001837BD4680BD80B582B000AF0346FB711B
:100F7C0097F907301846FFF735FF00BF0837BD4615
:100F8C0080BD80B582B000AF78607868FFF7A2FFB3
:100F9C00034618460837BD4680BD80B485B000AF07
:100FAC0078600023FB737B6893F82130DBB2022B53
:100FBC0008D07B6804229A637B68002283F8202087
:100FCC00012320E07B681B681A687B681B6822F091
:100FDC000E021A607B681B681A687B681B6822F01B
:100FEC0001021A607B681A6C7B68DB6B012101FAC9
:100FFC0002F25A607B68012283F821207B68002270
:10100C0083F82020FB7B18461437BD4680BC704704
:10101C0080B584B000AF78600023FB737B6893F8D5
:10102C002130DBB2022B05D07B6804229A630123AA
:10103C00FB7351E07B681B681A687B681B6822F0A5
:10104C000E021A607B681B681A687B681B6822F0AA
:10105C0001021A607B681B68224A934229D07B6884
:10106C001B68214A934222D07B681B681F4A93421B
:10107C001AD07B681B681E4A934212D07B681B688F
:10108C001C4A93420AD07B681B681B4A934202D1CC
:10109C004FF480130EE04FF080730BE04FF480336D
:1010AC0008E04FF4805305E04FF4807302E0102306
:1010BC0000E00123114A53607B68012283F8212050
:1010CC007B68002283F820207B685B6B002B03D0AD
:1010DC007B685B6B78689847FB7B18461037BD467E
:1010EC0080BD00BF080002401C00024030000240DE
:1010FC0044000240580002406C00024000000240D4
:10110C0080B48BB000AF7860396000237B62002321
:10111C003B6269E101227B6A02FA03F3FB613B68E3
:10112C001B68FA691340BB61BA69FB699A4240F0CB
:10113C0058813B685B689A4A93425ED0984A9342C6
:10114C0075D8984A934258D0964A93426FD8964A8B
:10115C00934252D0944A934269D8944A93424CD0C9
:10116C00924A934263D8924A934246D0904A934211
:10117C005DD8122B2AD8122B59D801A252F823F081
:10118C0007120008E1110008F311000835120008DD
:10119C003B1200083B1200083B1200083B120008EF
:1011AC003B1200083B1200083B1200083B120008DF
:1011BC003B1200083B1200083B1200083B120008CF
:1011CC003B120008E9110008FD110008794A93420E
:1011DC0013D02CE03B68DB683B6229E03B68DB68A2
:1011EC0004333B6224E03B68DB6808333B621FE05E
:1011FC003B68DB680C333B621AE03B689B68002B56
:10120C0002D104233B6213E03B689B68012B05D1A0
:10121C0008233B627B68FA691A6109E008233B6288
:10122C007B68FA695A6103E000233B6200E000BF6F
:10123C00BB69FF2B01D87B6801E07B6804337B61C1
:10124C00BB69FF2B02D87B6A9B0002E07B6A083BE0
:10125C009B003B617B691A680F213B6901FA03F320
:10126C00DB431A40396A3B6901FA03F31A437B6981
:10127C001A603B685B6803F08053002B00F0B18070
:10128C004D4B9B694C4A43F0010393614A4B9B695C
:10129C0003F00103BB60BB68484A7B6A9B080233BE
:1012AC0052F82330FB607B6A03F003039B000F2290
:1012BC0002FA03F3DB43FA681340FB607B68404A95
:1012CC00934213D07B683F4A93420DD07B683E4AD1
:1012DC00934207D07B683D4A934201D1032306E039
:1012EC00042304E0022302E0012300E000237A6AD5
:1012FC0002F0030292009340FA681343FB602F49FB
:10130C007B6A9B080233FA6841F823203B685B68D0
:10131C0003F48013002B06D02D4B9A682C49BB6923
:10132C0013438B6006E02A4B9A68BB69DB43284960
:10133C0013408B603B685B6803F40013002B06D0F2
:10134C00234BDA682249BB691343CB6006E0204B80
:10135C00DA68BB69DB431E491340CB603B685B68B2
:10136C0003F40033002B06D0194B5A681849BB699B
:10137C0013434B6006E0164B5A68BB69DB431449B8
:10138C0013404B603B685B6803F48033002B21D027
:10139C000F4B1A680E49BB6913430B6021E000BF69
:1013AC00000032100000311000002210000021104B
:1013BC00000012100000111000100240000001404B
:1013CC0000080140000C01400010014000140140D5
:1013DC00000401400B4B1A68BB69DB4309491340FD
:1013EC000B607B6A01337B623B681A687B6A22FA6A
:1013FC0003F3002B7FF48EAE00BF00BF2C37BD462D
:10140C0080BC70470004014080B483B000AF7860AA
:10141C000B467B8013467B707B78002B03D07A883D
:10142C007B681A6103E07B881A047B681A6100BF31
:10143C000C37BD4680BC704780B586B000AF786075
:10144C007B68002B01D1012372E27B681B6803F0DF
:10145C000103002B00F08780924B5B6803F00C03B8
:10146C00042B0CD08F4B5B6803F00C03082B12D1B0
:10147C008C4B5B6803F48033B3F5803F0BD1894B05
:10148C001B6803F40033002B6CD07B685B68002B6B
:10149C0068D101234CE27B685B68B3F5803F06D1D1
:1014AC00804B1B687F4A43F4803313602EE07B68CB
:1014BC005B68002B0CD17B4B1B687A4A23F480337E
:1014CC001360784B1B68774A23F4802313601DE06C
:1014DC007B685B68B3F5A02F0CD1724B1B68714A0B
:1014EC0043F4802313606F4B1B686E4A43F48033C4
:1014FC0013600BE06B4B1B686A4A23F48033136058
:10150C00684B1B68674A23F4802313607B685B6815
:10151C00002B13D0FFF706FC386108E0FFF702FC44
:10152C0002463B69D31A642B01D9032300E25D4BBD
:10153C001B6803F40033002BF0D014E0FFF7F2FB30
:10154C00386108E0FFF7EEFB02463B69D31A642BC7
:10155C0001D90323ECE1534B1B6803F40033002B3C
:10156C00F0D100E000BF7B681B6803F00203002B86
:10157C0063D04C4B5B6803F00C03002B0BD0494B36
:10158C005B6803F00C03082B1CD1464B5B6803F41F
:10159C008033002B16D1434B1B6803F00203002B46
:1015AC0005D07B681B69012B01D00123C0E13D4BA9
:1015BC001B6823F0F8027B685B69DB003949134335
:1015CC000B603AE07B681B69002B20D0364B012264
:1015DC001A60FFF7A7FB386108E0FFF7A3FB024690
:1015EC003B69D31A022B01D90323A1E12D4B1B68B4
:1015FC0003F00203002BF0D02A4B1B6823F0F802F7
:10160C007B685B69DB00274913430B6015E0264BB5
:10161C0000221A60FFF786FB386108E0FFF782FBB7
:10162C0002463B69D31A022B01D9032380E11D4BDF
:10163C001B6803F00203002BF0D17B681B6803F0DE
:10164C000803002B3AD07B689B69002B19D0174BF1
:10165C0001221A60FFF766FB386108E0FFF762FBB6
:10166C0002463B69D31A022B01D9032360E10D4BCF
:10167C005B6A03F00203002BF0D0012000F0CEFADD
:10168C001CE00A4B00221A60FFF74CFB38610FE09C
:10169C00FFF748FB02463B69D31A022B08D90323F8
:1016AC0046E100BF0010024000004242800442426A
:1016BC00924B5B6A03F00203002BE9D17B681B6839
:1016CC0003F00403002B00F0A6800023FB758B4B6A
:1016DC00DB6903F08053002B0DD1884BDB69874A03
:1016EC0043F08053D361854BDB6903F08053BB60BF
:1016FC00BB680123FB75824B1B6803F48073002BC2
:10170C0018D17F4B1B687E4A43F480731360FFF73C
:10171C0009FB386108E0FFF705FB02463B69D31A69
:10172C00642B01D9032303E1754B1B6803F480730D
:10173C00002BF0D07B68DB68012B06D16F4B1B6A4A
:10174C006E4A43F0010313622DE07B68DB68002BCB
:10175C000CD16A4B1B6A694A23F001031362674B75
:10176C001B6A664A23F0040313621CE07B68DB6887
:10177C00052B0CD1614B1B6A604A43F004031362C6
:10178C005E4B1B6A5D4A43F0010313620BE05B4B3B
:10179C001B6A5A4A23F001031362584B1B6A574ABF
:1017AC0023F0040313627B68DB68002B15D0FFF772
:1017BC00B9FA38610AE0FFF7B5FA02463B69D31A69
:1017CC0041F28832934201D90323B1E04B4B1B6A9F
:1017DC0003F00203002BEED014E0FFF7A3FA3861FC
:1017EC000AE0FFF79FFA02463B69D31A41F28832AE
:1017FC00934201D903239BE0404B1B6A03F0020385
:10180C00002BEED1FB7D012B05D13C4BDB693B4A18
:10181C0023F08053D3617B68DB69002B00F0878059
:10182C00364B5B6803F00C03082B61D07B68DB69DB
:10183C00022B46D1334B00221A60FFF773FA386142
:10184C0008E0FFF76FFA02463B69D31A022B01D965
:10185C0003236DE0294B1B6803F00073002BF0D1C0
:10186C007B681B6AB3F5803F08D1244B5B6823F47B
:10187C0000327B689B68214913434B601F4B5B68AC
:10188C0023F474127B68196A7B685B6A0B431B49EF
:10189C0013434B601B4B01221A60FFF743FA38616C
:1018AC0008E0FFF73FFA02463B69D31A022B01D935
:1018BC0003233DE0114B1B6803F00073002BF0D0A9
:1018CC0035E0104B00221A60FFF72CFA386108E063
:1018DC00FFF728FA02463B69D31A022B01D90323DE
:1018EC0026E0064B1B6803F00073002BF0D11EE0C2
:1018FC007B68DB69012B07D1012319E00010024042
:10190C0000700040600042420B4B5B68FB60FB6860
:10191C0003F480327B681B6A9A4206D1FB6803F49D
:10192C0070127B685B6A9A4201D0012300E00023AD
:10193C0018461837BD4680BD0010024080B584B0F3
:10194C0000AF786039607B68002B01D10123D0E0B7
:10195C006A4B1B6803F007033A689A4210D9674B2D
:10196C001B6823F0070265493B6813430B60634B0C
:10197C001B6803F007033A689A4201D00123B8E0D0
:10198C007B681B6803F00203002B20D07B681B686C
:10199C0003F00403002B05D0594B5B68584A43F401
:1019AC00E06353607B681B6803F00803002B05D0D1
:1019BC00534B5B68524A43F460535360504B5B6823
:1019CC0023F0F0027B689B684D4913434B607B68A6
:1019DC001B6803F00103002B40D07B685B68012B74
:1019EC0007D1474B1B6803F40033002B15D101239F
:1019FC007FE07B685B68022B07D1414B1B6803F0CF
:101A0C000073002B09D1012373E03D4B1B6803F0DD
:101A1C000203002B01D101236BE0394B5B6823F0EF
:101A2C0003027B685B68364913434B60FFF77AF916
:101A3C00F8600AE0FFF776F90246FB68D31A41F228
:101A4C008832934201D9032353E02D4B5B6803F09A
:101A5C000C027B685B689B009A42EBD1274B1B689E
:101A6C0003F007033A689A4210D2244B1B6823F008
:101A7C00070222493B6813430B60204B1B6803F0A1
:101A8C0007033A689A4201D0012332E07B681B6855
:101A9C0003F00403002B08D0194B5B6823F4E062BD
:101AAC007B68DB68164913434B607B681B6803F04B
:101ABC000803002B09D0124B5B6823F460527B683F
:101ACC001B69DB000E4913434B6000F021F8024602
:101ADC000B4B5B681B0903F00F030A49CB5C22FA22
:101AEC0003F3094A1360094B1B681846FFF7D8F833
:101AFC00002318461037BD4680BD00BF00200240B1
:101B0C0000100240084400080400002008000020D7
:101B1C0080B487B000AF0023FB600023BB600023C0
:101B2C007B6100237B6000233B611E4B5B68FB6089
:101B3C00FB6803F00C03042B02D0082B03D027E026
:101B4C00194B3B6127E0FB689B0C03F00F03174A12
:101B5C00D35C7B60FB6803F48033002B10D0114BFB
:101B6C005B685B0C03F00103114AD35CBB607B68C0
:101B7C000D4A03FB02F2BB68B2FBF3F37B6104E09A
:101B8C007B680C4A02FB03F37B617B693B6102E0DF
:101B9C00054B3B6100BF3B6918461C37BD4680BCFA
:101BAC00704700BF0010024000127A002044000869
:101BBC003044000800093D0080B400AF024B1B68A4
:101BCC001846BD4680BC70470400002080B500AFAD
:101BDC00FFF7F2FF0246054B5B681B0A03F0070395
:101BEC000349CB5C22FA03F3184680BD0010024077
:101BFC001844000880B500AFFFF7DEFF0246054B26
:101C0C005B68DB0A03F007030349CB5C22FA03F39E
:101C1C00184680BD001002401844000880B485B0FE
:101C2C0000AF78600A4B1B680A4AA2FB03235B0ACD
:101C3C007A6802FB03F3FB6000BFFB685A1EFA6074
:101C4C00002BF9D100BF00BF1437BD4680BC7047D4
:101C5C0004000020D34D621080B582B000AF7860D4
:101C6C007B68002B01D1012342E07B6893F8413063
:101C7C00DBB2002B06D17B68002283F84020786809
:101C8C00FEF780FF7B68242283F841207B681B6869
:101C9C00DA687B681B6822F40052DA60786800F01E
:101CAC00B7FD7B681B681A697B681B6822F490423D
:101CBC001A617B681B685A697B681B6822F02A02D0
:101CCC005A617B681B68DA687B681B6842F40052B7
:101CDC00DA607B6800225A647B68202283F84120FA
:101CEC007B68202283F842207B6800225A63002301
:101CFC0018460837BD4680BD80B58AB002AFF86083
:101D0C00B9603B601346FB8000237B61FB6893F852
:101D1C004130DBB2202B75D1BB68002B02D0FB8885
:101D2C00002B01D101236EE0FB6800225A64FB6892
:101D3C00212283F84120FEF7F5FF7861FB68FA88D1
:101D4C009A84FB68FA88DA84FB689B68B3F5805F39
:101D5C0008D1FB681B69002B04D10023FB61BB6815
:101D6C00BB6103E0BB68FB610023BB612EE03B68F9
:101D7C0000937B6900228021F86800F01CFB03466D
:101D8C00002B05D0FB68202283F8412003233AE086
:101D9C00FB69002B0BD1BB691B881A46FB681B68BF
:101DAC00C2F308025A60BB690233BB6107E0FB69EE
:101DBC001A78FB681B685A60FB690133FB61FB688E
:101DCC00DB8C9BB2013B9AB2FB68DA84FB68DB8C40
:101DDC009BB2002BCBD13B6800937B690022402146
:101DEC00F86800F0E8FA0346002B05D0FB682022C7
:101DFC0083F84120032306E0FB68202283F841206E
:101E0C00002300E0022318462037BD4680BD80B574
:101E1C0084B000AFF860B9601346FB80FB6893F8A0
:101E2C004230DBB2202B12D1BB68002B02D0FB88D6
:101E3C00002B01D101230BE0FB6800221A63FB8805
:101E4C001A46B968F86800F00FFB034600E002235D
:101E5C0018461037BD4680BD80B5BAB000AF78606B
:101E6C007B681B681B68C7F8E4307B681B68DB6801
:101E7C00C7F8E0307B681B685B69C7F8DC3000236F
:101E8C00C7F8D8300023C7F8D430D7F8E43003F0C3
:101E9C000F03C7F8D830D7F8D830002B0FD1D7F8AC
:101EAC00E43003F02003002B09D0D7F8E03003F026
:101EBC002003002B03D0786800F0ECFB5BE2D7F832
:101ECC00D830002B00F0DE80D7F8DC3003F00103B3
:101EDC00002B06D1D7F8E03003F49073002B00F000
:101EEC00D180D7F8E43003F00103002B0BD0D7F8E6
:101EFC00E03003F48073002B05D07B685B6C43F0FF
:101F0C0001027B685A64D7F8E43003F00403002B19
:101F1C000BD0D7F8DC3003F00103002B05D07B6825
:101F2C005B6C43F002027B685A64D7F8E43003F030
:101F3C000203002B0BD0D7F8DC3003F00103002B8D
:101F4C0005D07B685B6C43F004027B685A64D7F85D
:101F5C00E43003F00803002B11D0D7F8E03003F085
:101F6C002003002B05D1D7F8DC3003F00103002B44
:101F7C0005D07B685B6C43F008027B685A647B6815
:101F8C005B6C002B00F0F281D7F8E43003F02003F7
:101F9C00002B08D0D7F8E03003F02003002B02D040
:101FAC00786800F077FB7B681B685B6903F0400383
:101FBC00002B14BF01230023DBB2C7F8D4307B689D
:101FCC005B6C03F00803002B03D1D7F8D430002B43
:101FDC004FD0786800F081FA7B681B685B6903F06E
:101FEC004003002B41D07B681B681433C7F89C302E
:101FFC00D7F89C3053E8003FC7F89830D7F89830A2
:10200C0023F04003C7F8D0307B681B681433D7F833
:10201C00D020C7F8A820C7F8A430D7F8A410D7F858
:10202C00A82041E80023C7F8A030D7F8A030002B37
:10203C00D9D17B68DB6B002B13D07B68DB6B7E4AC2
:10204C005A637B68DB6B1846FEF7E2FF0346002BF6
:10205C0016D07B68DB6B5B6B7A68D26B104698474B
:10206C000EE0786800F093F90AE0786800F08FF9D8
:10207C0006E0786800F08BF97B6800225A6475E101
:10208C0000BF73E17B681B6B012B40F04F81D7F8CD
:10209C00E43003F01003002B00F04881D7F8E03057
:1020AC0003F01003002B00F041810023BB607B6820
:1020BC001B681B68BB607B681B685B68BB60BB688C
:1020CC007B681B685B6903F04003002B00F0B68053
:1020DC007B68DB6B1B685B68A7F8BE30B7F8BE305B
:1020EC00002B00F045817B689B8DB7F8BE209A428F
:1020FC0080F03E817B68B7F8BE20DA857B68DB6BAD
:10210C009B69202B00F088807B681B680C33C7F818
:10211C008830D7F8883053E8003FC7F88430D7F8B8
:10212C00843023F48073C7F8B8307B681B680C3399
:10213C00D7F8B820C7F89420C7F89030D7F890108B
:10214C00D7F8942041E80023C7F88C30D7F88C30AE
:10215C00002BD9D17B681B6814337B677B6F53E8EA
:10216C00003F3B673B6F23F00103C7F8B4307B683B
:10217C001B681433D7F8B420C7F88020FB67F96FBD
:10218C00D7F8802041E80023BB67BB6F002BE1D15F
:10219C007B681B6814333B663B6E53E8003FFB6562
:1021AC00FB6D23F04003C7F8B0307B681B68143319
:1021BC00D7F8B020FA66BB66B96EFA6E41E8002318
:1021CC007B667B6E002BE3D17B68202283F8422058
:1021DC007B6800221A637B681B680C33FB64FB6C06
:1021EC0053E8003FBB64BB6C23F01003C7F8AC3062
:1021FC007B681B680C33D7F8AC20BA657B65796DAE
:10220C00BA6D41E800233B653B6D002BE3D17B6845
:10221C00DB6B1846FEF7C1FE7B6802225A637B68B3
:10222C009A8D7B68DB8D9BB2D31A9BB2194678686A
:10223C0000F0B6F89CE000BFAB2500087B689A8DD7
:10224C007B68DB8D9BB2D31AA7F8CE307B68DB8D15
:10225C009BB2002B00F08E80B7F8CE30002B00F034
:10226C0089807B681B680C33BB63BB6B53E8003FF6
:10227C007B637B6B23F49073C7F8C8307B681B6857
:10228C000C33D7F8C8207A643B64396C7A6C41E81B
:10229C000023FB63FB6B002BE3D17B681B681433BF
:1022AC007B627B6A53E8003F3B623B6A23F001038D
:1022BC00C7F8C4307B681B681433D7F8C4203A6362
:1022CC00FB62F96A3A6B41E80023BB62BB6A002BE4
:1022DC00E3D17B68202283F842207B6800221A63BA
:1022EC007B681B680C333B613B6953E8003FFB6028
:1022FC00FB6823F01003C7F8C0307B681B680C33F5
:10230C00D7F8C020FA61BB61B969FA6941E80023CA
:10231C007B617B69002BE3D17B6802225A63B7F89F
:10232C00CE301946786800F03BF823E0D7F8E4305B
:10233C0003F08003002B09D0D7F8E03003F08003C2
:10234C00002B03D0786800F03EF914E0D7F8E430A5
:10235C0003F04003002B0ED0D7F8E03003F040031D
:10236C00002B08D0786800F07DF904E000BF02E093
:10237C0000BF00E000BFE837BD4680BD80B483B02D
:10238C0000AF786000BF0C37BD4680BC704780B48E
:10239C0083B000AF786000BF0C37BD4680BC70477F
:1023AC0080B483B000AF78600B467B8000BF0C37E5
:1023BC00BD4680BC704780B586B000AFF860B96090
:1023CC003B601346FB713BE03B6AB3F1FF3F37D0F8
:1023DC00FEF7A8FC02463B68D31A3A6A9A4202D32B
:1023EC003B6A002B01D103233AE0FB681B68DB68D6
:1023FC0003F00403002B23D0BB68802B20D0BB68D8
:10240C00402B1DD0FB681B681B6803F00803082BCE
:10241C0016D100237B61FB681B681B687B61FB6822
:10242C001B685B687B617B69F86800F056F8FB6899
:10243C0008225A64FB68002283F8402001230FE035
:10244C00FB681B681A68BB681340BA689A420CBFD9
:10245C0001230023DBB21A46FB799A42B4D0002345
:10246C0018461837BD4680BD80B485B000AFF86003
:10247C00B9601346FB80FB68BA689A62FB68FA88FD
:10248C009A85FB68FA88DA85FB6800225A64FB6837
:10249C00222283F84220FB681B69002B07D0FB68C3
:1024AC001B68DA68FB681B6842F48072DA60FB68B0
:1024BC001B685A69FB681B6842F001025A61FB6891
:1024CC001B68DA68FB681B6842F02002DA600023A4
:1024DC0018461437BD4680BC704780B495B000AF29
:1024EC0078607B681B680C337B637B6B53E8003F25
:1024FC003B633B6B23F49073FB647B681B680C336E
:10250C00FA6C3A64FB63F96B3A6C41E80023BB63E9
:10251C00BB6B002BE5D17B681B6814333B623B6AB9
:10252C0053E8003FFB61FB6923F00103BB647B684C
:10253C001B681433BA6CFA62BB62B96AFA6A41E876
:10254C0000237B627B6A002BE5D17B681B6B012B24
:10255C0019D17B681B680C33FB60FB6853E8003FA8
:10256C00BB60BB6823F010037B647B681B680C3377
:10257C007A6CBA617B617969BA6941E800233B6185
:10258C003B69002BE5D17B68202283F842207B68D5
:10259C0000221A6300BF5437BD4680BC704780B51B
:1025AC0084B000AF78607B685B6AFB60FB680022DC
:1025BC00DA85FB680022DA84F868FFF7E8FE00BFD2
:1025CC001037BD4680BD80B485B000AF78607B68A5
:1025DC0093F84130DBB2212B3ED17B689B68B3F57D
:1025EC00805F14D17B681B69002B10D17B681B6A40
:1025FC00FB60FB681B881A467B681B68C2F30802E9
:10260C005A607B681B6A9A1C7B681A6208E07B68BC
:10261C001B6A591C7A6811621A787B681B685A60AD
:10262C007B68DB8C9BB2013B9BB27A681946D184E8
:10263C00002B0FD17B681B68DA687B681B6822F063
:10264C008002DA607B681B68DA687B681B6842F082
:10265C004002DA60002300E0022318461437BD461E
:10266C0080BC704780B582B000AF78607B681B6817
:10267C00DA687B681B6822F04002DA607B682022F3
:10268C0083F841207868FFF779FE00231846083755
:10269C00BD4680BD80B58CB000AF78607B6893F888
:1026AC004230DBB2222B40F0AE807B689B68B3F5E6
:1026BC00805F17D17B681B69002B13D10023FB6251
:1026CC007B689B6ABB627B681B685B689BB2C3F3CD
:1026DC0008039AB2BB6A1A807B689B6A9A1C7B6857
:1026EC009A6226E07B689B6AFB620023BB627B6874
:1026FC009B68B3F5805F07D07B689B68002B0AD181
:10270C007B681B69002B06D17B681B685B68DAB29F
:10271C00FB6A1A7008E07B681B685B68DBB203F02D
:10272C007F03DAB2FB6A1A707B689B6A5A1C7B685F
:10273C009A627B68DB8D9BB2013B9BB27A6819462F
:10274C00D185002B5DD17B681B68DA687B681B68C0
:10275C0022F02002DA607B681B68DA687B681B68F1
:10276C0022F48072DA607B681B685A697B681B688C
:10277C0022F001025A617B68202283F842207B6898
:10278C0000225A637B681B6B012B35D17B680022BE
:10279C001A637B681B680C337B617B6953E8003FD1
:1027AC003B613B6923F010037B627B681B680C3335
:1027BC007A6A3A62FB61F9693A6A41E80023BB61C3
:1027CC00BB69002BE5D17B681B681B6803F0100309
:1027DC00102B0AD10023FB607B681B681B68FB6015
:1027EC007B681B685B68FB60FB687B689B8D19468C
:1027FC007868FFF7D5FD02E07868FDF703FE00234B
:10280C0002E0002300E0022318463037BD4680BDAD
:10281C0080B584B000AF78607B681B681B6923F4BB
:10282C0040517B68DA687B681B680A431A617B68D5
:10283C009A687B681B691A437B685B691343BB60AE
:10284C007B681B68DB6823F4B05323F00C037A68B5
:10285C001268B9680B43D3607B681B685B6923F40F
:10286C0040717B689A697B681B680A435A617B6874
:10287C001B682C4A934203D1FFF7BCF9F86002E0C5
:10288C00FFF7A4F9F860FA6813469B0013449A000A
:10289C001A447B685B689B00B2FBF3F3224AA2FBF1
:1028AC0003235B091901FA6813469B0013449A0031
:1028BC001A447B685B689B00B2FBF3F21A4BA3FBD8
:1028CC0002035B09642000FB03F3D31A1B013233B0
:1028DC00154AA2FB03235B0903F0F0031944FA68C1
:1028EC0013469B0013449A001A447B685B689B0058
:1028FC00B2FBF3F20C4BA3FB02035B09642000FB5D
:10290C0003F3D31A1B013233074AA2FB03235B09DF
:10291C0003F00F027B681B680A449A6000BF1037F3
:10292C00BD4680BD003801401F85EB51002310B51A
:10293C000446C0E90033C0E90433836081814366F7
:10294C00C2818361194608225C3000F022F90D4BDC
:10295C00246263620C4BA3620C4BE3620C4B23634B
:10296C000C4B9C4206D003F16802944202D0D03347
:10297C009C4205D104F15800BDE8104000F0EAB9C2
:10298C0010BD00BF152B00083B2B0008732B000853
:10299C00972B0008FC020020024A0349034800F070
:1029AC0069B800BF10000020E536000820000020A8
:1029BC0041680C4B10B59942044601D000F08CFED6
:1029CC00A168094B994202D0204600F085FEE168CF
:1029DC00064B994204D02046BDE8104000F07CBE66
:1029EC0010BD00BFFC02002064030020CC030020BB
:1029FC0010B50B4B0B4C0C4A20461A6004210022DC
:102A0C00FFF794FF04F1680001220921FFF78EFF04
:102A1C0004F1D0000222BDE810401221FFF786BF5E
:102A2C0034040020FC020020A5290008014800F015
:102A3C0092B900BF3D040020014800F08DB900BFE1
:102A4C003D04002010B50446FFF7F0FF236A1BB1CC
:102A5C00BDE81040FFF7F0BF044B2362044B1B682A
:102A6C00002BF5D1FFF7C4FFF2E700BFBD2900082A
:102A7C00340400202DE9F843074688461446002606
:102A8C00D4E90195B9F1010905D52468002CF7D1D9
:102A9C003046BDE8F883AB89012B07D9B5F90E3068
:102AAC00013303D029463846C04706436835E9E769
:102ABC000EB44FF4017270B500259DB021AC54F8E2
:102ACC00046BADF814201B9502900690FDF742FBA9
:102ADC000B4B03900B934FF6FF7307900948ADF81F
:102AEC0016303246234602A900680F9514950194BE
:102AFC0000F0B2FA1DB0BDE8704003B0704700BFE3
:102B0C00372B00081C00002010B50C46B1F90E1034
:102B1C0000F0D2F80028ABBF636DA3891B1823F417
:102B2C008053ACBF6365A38110BD002070472DE9B5
:102B3C00F0411F468B890546DB050C46164605D52C
:102B4C0002230022B1F90E1000F0A4F8A38932463A
:102B5C0023F48053A38128463B46B4F90E10BDE8FC
:102B6C00F04100F0BBB810B50C46B1F90E1000F0F6
:102B7C0091F8431CA38915BF606523F4805343F47B
:102B8C008053A38118BFA38110BDB1F90E1000F0C2
:102B9C0071B803460244934200D1704703F8011BFD
:102BAC00F9E70346C9B2184613F8012B12B18A4251
:102BBC00F9D17047002918BF00207047164B2DE93A
:102BCC00F0411F6805467C6C0E46ECB9502000F0B5
:102BDC0033F90246786420B95B21104B104800F0A1
:102BEC00C5F8C0E90044C0E90244C0E90444C0E9A6
:102BFC000A44C0E90C44C0E90E44C0E91044C0E9E1
:102C0C001244846104774462314628467A6C01236D
:102C1C00BDE8F04100F006B81C000020324400086A
:102C2C0049440008F0B5044608B9146844B10F468D
:102C3C00204614F8015B17F8016B1EB965B91560D5
:102C4C00002005E0B542F6D1002BF0D114600370E2
:102C5C00F0BD1C460CE01DB90E46274614F8013B8E
:102C6C0016F8015BAB42F6D1002BF2D000233B707F
:102C7C001460EDE738B50023054D044608462B607B
:102C8C00FDF7E9FE431C02D12B6803B1236038BD6C
:102C9C003804002038B50446084611460022054D7C
:102CAC002A601A46FDF7FBFE431C02D12B6803B1C8
:102CBC00236038BD3804002038B504460846114658
:102CCC000022054D2A601A46FDF78CFE431C02D1EA
:102CDC002B6803B1236038BD3804002038B5044696
:102CEC00084611460022054D2A601A46FDF797FE4C
:102CFC00431C02D12B6803B1236038BD380400207B
:102D0C00014B1868704700BF1C00002070B50026EE
:102D1C000C4D0D4C641BA410A64209D101F00AFB0A
:102D2C0000260A4D0A4C641BA410A64205D170BDA6
:102D3C0055F8043B98470136EEE755F8043B9847A5
:102D4C000136F2E7384600083846000838460008D5
:102D5C003C460008704770477047034611F8012B3A
:102D6C0003F8012B002AF9D1704700001FB5144657
:102D7C001A46094B05461B68D8684CB1074BCDE980
:102D8C00013400912B46064900F0CEFC00F07CFD8E
:102D9C00044B1C46F3E700BF1C000020A3440008B2
:102DAC00B0440008DE44000838B50546002940D080
:102DBC0051F8043C0C1F002BB8BFE41800F0E6F8E7
:102DCC001C4A136833B9636014602846BDE8384068
:102DDC0000F0E2B8A34208D9206821188B4201BF49
:102DEC0019685B6809182160EDE71A465B680BB13E
:102DFC00A342FAD911685018A0420BD120680144A3
:102E0C00501883421160E0D118685B680844106068
:102E1C005360DAE702D90C232B60D6E7206821181F
:102E2C008B4201BF19685B680918216063605460AC
:102E3C00CBE738BD44040020024B0146186800F073
:102E4C0025B800BF1C00002070B50F4E0C46316831
:102E5C00054611B900F0ECFC30602146284600F024
:102E6C00E7FC431C03D14FF0FF34204670BDC41C5B
:102E7C0024F00304A042F8D0211A284600F0D8FC14
:102E8C000130F2D1EFE700BF400400202DE9F843F8
:102E9C00CD1C25F0030508350C2D38BF0C25002D55
:102EAC00064601DBA94204D90C2333600020BDE89F
:102EBC00F883DFF8D48000F069F8D8F800301C46AD
:102ECC0044BB29463046FFF7BFFF431C044658D18C
:102EDC00D8F800402746002F43D1002C4BD0236854
:102EEC003946304604EB030900F0A2FC814542D17F
:102EFC00216830466D1A2946FFF7A6FF01303AD0FB
:102F0C0023682B442360D8F800305A6862BBC8F899
:102F1C0000700FE02268521B20D40B2A17D96119BC
:102F2C00A342256018BF5960636808BFC8F8001039
:102F3C0062514B60304600F02FF804F10B00231D5A
:102F4C0020F00700C21A1CBF1B1AA350AFE762681F
:102F5C00A3420CBFC8F800205A60EBE72346646814
:102F6C00AEE73C467F68B6E71A465B68A342FBD1E6
:102F7C0000235360DEE70C233046336000F00CF87E
:102F8C0094E70560D6E700BF440400200148FFF732
:102F9C00E2BE00BF3C0400200148FFF7DDBE00BFCD
:102FAC003C04002038B54B1C144603D14FF0FF35C0
:102FBC00284638BD9389CDB223F020039381636BEF
:102FCC0052688BB1A36B934208DD23685A1E2260B2
:102FDC0003F8015C636801336360E9E7214600F0A4
:102FEC00EEFB0028F1D0E1E72169236851B1994249
:102FFC0008D213F8011CA94204D1013B0132236011
:10300C006260D5E7C4E90F3204F144036363032320
:10301C00A363234603F8465F23600123DCE710B566
:10302C000C46496B69B104F14403994201D0FFF796
:10303C00BBFE0020236C6063636013B1E36B236001
:10304C0010BD23694FF0FF30236000236360A38918
:10305C0043F02003A381F3E72DE9F04F0C46002148
:10306C000646ADF5237DCDE94411AB490DF10408BD
:10307C00A091AA49AA4FCDF81881A191009392F87A
:10308C000090B9F1000F00F0598117F80930551C68
:10309C0013F0080319D06368002B0FDD23681A782E
:1030AC00BA5C120701D42A46E9E7459A013301328A
:1030BC00459262682360013A6260ECE72146304633
:1030CC00A19B98470028E9D0EDE7B9F1250F40F016
:1030DC0086804193439353782A2B04BF1023951C6D
:1030EC004FF00A0208BF4193AA461AF8011BA1F13E
:1030FC003003092B1ED9DFF82CB20322584600F0FE
:10310C00A7FB38B101235546419AA0EB0B00834035
:10311C001343419315F8013B782B06D8572B10D845
:10312C00252B5CD056D8002B74D0032347930A234D
:10313C00429387E0439B554602FB03113039439180
:10314C00D2E7A3F15802202AEFD801A151F822F0BE
:10315C002F32000837310008373100088932000857
:10316C003731000837310008373100083731000893
:10317C003731000837310008373100089F3200081A
:10318C0085320008E7310008E7310008E731000814
:10319C003731000841320008373100083731000858
:1031AC003731000837310008AF32000849320008C7
:1031BC00273200083731000837310008AB320008DD
:1031CC0037310008853200083731000837310008E4
:1031DC002F320008453B022BA7D8052331E063684A
:1031EC00002B0DDD23681A784A4540F0A780013387
:1031FC0062682360459B013A01336260459352E754
:10320C0021463046A19B98470028EBD044980028D3
:10321C0040F08C804FF0FF308CE0419A42F020025D
:10322C004192419A42F40072419210226E2B4292CA
:10323C0002D905E000234293032302E008234293C2
:10324C00042347936368002B39DD419B590604D452
:10325C0023681A78BA5C120738D4479B022B47DCD8
:10326C006B462246304641A900F06AF8012865D029
:10327C0002287FF418AFC9E70A22D7E7294640464F
:10328C0000F064FA419B054643F04003419301234F
:10329C00D7E7419B43F0400341930023D1E702233E
:1032AC00CFE74198C3063FF5FEAE009B459A191D2A
:1032BC0000911B68C0074CBF1A801A60F3E62146C8
:1032CC003046A19B98470028BFD09FE7459A013212
:1032DC0045926268013A002A626002DD0133236084
:1032EC00B6E721463046A19B98470028B0D08DE721
:1032FC00042B06DC6B462246304641A900F07AF8D6
:10330C00B4E7094B002B3FF4CEAE6B462246304659
:10331C0041A9AFF30080A9E7B12F00082B300008BA
:10332C002E450008DF44000800000000A3895B065E
:10333C003FF570AF0DF5237DBDE8F08F4498F9E7AC
:10334C002DE9F84315468A6880460C4632B98A69DD
:10335C00002A14BF4FF0FF3201228A600027226836
:10336C00DFF88C90D1065FBF1A68111D19601668C2
:10337C00A06988B1012807D12B681A7863699B5C16
:10338C0053B9002F31D022E0022820D12B681B78B2
:10339C0019F803301B071AD423680137DA065EBF0D
:1033AC002B681B7806F8013B2A686B6801322A608F
:1033BC00A268013B013A6B60A26042B1002BD7DCE2
:1033CC0029464046D4F8803198470028D0D023684D
:1033DC0013F0100305D1E2680132E260A26902B178
:1033EC003370002023693B442361BDE8F88300BFA0
:1033FC002E4500082DE9F04F0C469846724B87B0CD
:10340C008246164693E8070003AB83E807006F4B30
:10341C00A1696F4A2746032908BF1A46A36801927F
:10342C005A1EB2F5AE7F81BF6FF4AE7503EB050982
:10343C0040F25D13A36057F81C3B98BF4FF0000996
:10344C003D464FF0000B43F450632360316803ABEF
:10345C000222097853F82B0000F0FAF928B3BBF1DB
:10346C00010F59D162682AB908212268616042F4BF
:10347C0000722260226822F4A0622260A268511EAF
:10348C00A16092B13268511C3160127805F8012BA1
:10349C007268013A002A726007DC31465046D4F853
:1034AC0080219047002840F085800BF1010BBBF187
:1034BC00030FCBD163680BB90A236360636845497A
:1034CC006069C91A00F042F94FF0000BA36822683A
:1034DC00002B3DD03168606991F800C010F80C00E9
:1034EC00002835D0BCF1300F24D1100522D50BF1BA
:1034FC00010BB9F1000F03D0013309F1FF39A360BF
:10350C007368013B002B73601BDD33680133336040
:10351C00A368013BA360D9E7BBF1020FAED12268CF
:10352C0002F4C061B1F5007FC4D1102142F4807265
:10353C006160A2E722F4106222600B7805F8013B6F
:10354C00DEE731465046D4F8803198470028DFD06A
:10355C002368D9050DD5BD4209D915F8011C324691
:10356C005046D4F87C3105F1FF3998474D46BD42A1
:10357C0028D0226812F0100213D12A7039466368E1
:10358C005046019EB047D8F8003021681A1DC8F883
:10359C00002011F0200F1B680FD01860E368013376
:1035AC00E36000202369ED1B5D442B44236107B0CD
:1035BC00BDE8F08F4FF0000BCAE7CA074CBF18806C
:1035CC001860EBE70120F2E7FC430008F53900082E
:1035DC00D53A0008F3440008B1F90C20F8B51607E9
:1035EC0005460C4654D44B68002B02DC0B6C002BAC
:1035FC0048DDE66A002E45D0002312F480522F6875
:10360C00216A2B6030D0626DA389590705D5636898
:10361C00D21A636B0BB1236CD21A00232846E66ACC
:10362C00216AB047431CA38906D129681D292BD8D0
:10363C00284ACA40D60727D5002262602269D904DD
:10364C00226004D5421C01D12B6803B96065616B03
:10365C002F60B9B104F14403994202D02846FFF718
:10366C00A3FB002363630DE001232846B047024609
:10367C00501CC9D12B68002BC6D01D2B01D0162B8A
:10368C001DD12F60002021E043F040031BB21AE053
:10369C000F69002FF6D0930718BF00230E6808BFE0
:1036AC004B69F61B0F608B60002EEBDD33463A4600
:1036BC002846216AD4F828C0E047002807DCB4F972
:1036CC000C3043F040034FF0FF30A381F8BD0744AA
:1036DC00361AE9E70100402038B50B6905460C465F
:1036EC0013B90025284638BD18B1036A0BB9FFF78A
:1036FC00A9F9B4F90C30002BF3D0626ED00704D4C6
:10370C00990502D4A06DFFF726FB28462146FFF74A
:10371C0063FF636E0546DA07E4D4A3899B05E1D405
:10372C00A06DFFF719FBDDE70EB403B5014603AB43
:10373C00054853F8042B0068019300F0EFF902B030
:10374C005DF804EB03B070471C00002070B50B78DB
:10375C0004465E2B0BBF4B784A1C8A1C002108BF09
:10376C000121013804F1FF0500F8011FA842FBD12B
:10377C000BB9501E70BD81F001011046E154024698
:10378C0012F8015B2D2D05D05D2D16D0002DF1D03A
:10379C002B46F2E746785D2EFAD0B342F8DC1A4697
:1037AC00023001329642A154FBDCF21A013AB342C8
:1037BC00A8BF00225D1CAB18E1E71046DAE72DE943
:1037CC00F0410C46496B04F1440399421BD14FF470
:1037DC008061FFF75BFB18B94FF0FF30BDE8F0815B
:1037EC004FF48063A36394F84630606380F8FF3332
:1037FC0094F8453000F2FD30437094F84430037077
:10380C0020600020EAE7A66B77003A4600F043F808
:10381C0005460028E0D000EB06080146324640463B
:10382C0000F024F8C4E90D57C4F80080E9E7000063
:10383C0038B50023054D044608462B60FDF73CF9CE
:10384C00431C02D12B6803B1236038BD380400201F
:10385C00034610B5C9B202449342184601D1002068
:10386C0003E0047801338C42F6D110BD0A44914236
:10387C0000F1FF3300D1704710B511F8014B9142A4
:10388C0003F8014FF9D110BD062008B500F0AAFCD1
:10389C000120FDF79CF82DE9F041074614460D4632
:1038AC0021B91146BDE8F041FFF7F0BA2AB9FFF78C
:1038BC007BFA25462846BDE8F08100F0AFFC844237
:1038CC00064602D8B4EB500FF4D821463846FFF721
:1038DC00DDFA804608B94546ECE7B4422246294653
:1038EC0028BF3246FFF7C2FF29463846FFF75CFA7D
:1038FC00F1E70000242B2DE9F0478646904601D8CD
:10390C00012B06D1FFF7FCF9162303600020BDE85C
:10391C00F0870D4633482A4615F8014B065D16F024
:10392C000806F8D12D2C10D101262C78951C33F0DB
:10393C00100215D1302C0DD12A7802F0DF02582A52
:10394C0008D16C78023510230AE02B2C04BF2C789C
:10395C00951CECE7002BF6D1302C14BF0A2308235E
:10396C00002206F1004C0CF1FF3CBCFBF3F91046B5
:10397C0003FB19CAA4F13007092F0FD83C46A34208
:10398C001BDD571C07D0814514D301D1A24511DB97
:10399C00012200FB034015F8014BEBE7A4F14107B2
:1039AC00192F01D8373CEAE7A4F16107192F04D885
:1039BC00573CE4E74FF0FF32EDE7531C08D12223CC
:1039CC006046CEF80030B8F1000FA0D0691E06E0BA
:1039DC0006B14042B8F1000F99D0002AF6D1C8F8D0
:1039EC00001094E72E450008FFF784BF2DE9F04343
:1039FC0086460D46334E284615F8014B375D17F0B9
:103A0C000807F8D12D2C10D101272C78851C33F008
:103A1C00100015D1302C0DD1287800F0DF0058287B
:103A2C0008D16C78023510230AE02B2C04BF2C78BB
:103A3C00851CECE7002BF6D1302C14BF0A2308238D
:103A4C004FF0FF38B8FBF3F8002603FB08F93046BB
:103A5C006FEA0909A4F1300CBCF1090F10D86446C7
:103A6C00A3421EDDB6F1FF3F07D0804516D301D12E
:103A7C00A14513DB012600FB034015F8014BE9E7D8
:103A8C00A4F1410CBCF1190F01D8373CE8E7A4F1C3
:103A9C00610CBCF1190F04D8573CE1E74FF0FF362D
:103AAC00EBE7731C06D122233046CEF8003032B936
:103ABC00BDE8F08307B14042002AF9D006B1691E77
:103ACC001160F5E72E450008FFF790BF936810B41E
:103ADC00013B002B936007DA9469A34201DB0A29AE
:103AEC0002D110BC00F0C2BA1368581C10601970D7
:103AFC00084610BC7047F8B506460F461446D51854
:103B0C00AC4201D1002007E03A46304614F8011BC4
:103B1C00FFF7DCFF431CF3D1F8BD00002DE9F04F9B
:103B2C000D461446984606469DB018B1036A0BB96B
:103B3C00FEF788FF6B6ED90705D4AB899A0502D4C2
:103B4C00A86DFFF708F9AB891B0701D52B699BB949
:103B5C002946304600F0C8FA70B16B6EDC0704D50C
:103B6C004FF0FF301DB0BDE8F08FAB899805F7D44E
:103B7C00A86DFFF7F1F8F3E70023099320238DF8E4
:103B8C00293030234FF00109CDF80C80DFF8A881E3
:103B9C008DF82A3023469A4613F8012B0AB1252AB0
:103BAC00F9D1BAEB040B0BD05B46224629463046C2
:103BBC00FFF7A1FF013000F0A780099A5A4409923F
:103BCC009AF80030002B00F09F8000234FF0FF325A
:103BDC00CDE905230AF1010A049307938DF85330BC
:103BEC001A935446052214F8011B5348FFF730FE74
:103BFC00049AD8B9D10644BF20238DF8533013074B
:103C0C0044BF2B238DF853309AF800302A2B15D053
:103C1C00544600204FF00A0C079A214611F8013B3C
:103C2C00303B092B4BD9B0B1079214E0A0EB080341
:103C3C0009FA03F31343A2460493D2E7039B191D1D
:103C4C001B680391002BBBBF5B4242F0020207933F
:103C5C000793B8BF049223782E2B0AD163782A2BB2
:103C6C0032D1039B02341A1D1B68039243EAE3739F
:103C7C000593DFF8C8A0032250462178FFF7E8FD32
:103C8C0038B14022049BA0EB0A008240134301345C
:103C9C00049314F8011B062229488DF82810FFF70D
:103CAC00D7FD00283FD0274B1BBB039B073323F0CA
:103CBC00070308330393099B3B4409936AE70C46BB
:103CCC0001200CFB0232A8E700234FF00A0C194626
:103CDC0001340593204610F8012B303A092A03D9F8
:103CEC00002BC6D00591C4E7044601230CFB01212F
:103CFC00F0E703AB00932A463046134B04A9AFF30D
:103D0C0000800746781CD6D16B6ED90705D4AB89D9
:103D1C009A0502D4A86DFFF71FF8AB895B063FF537
:103D2C001FAF09981EE703AB00932A463046064B9B
:103D3C0004A900F07DF8E4E7FE440008DF44000825
:103D4C000445000800000000033B00082DE9F04783
:103D5C00164698468A680B6907469342B8BF1346C5
:103D6C00336091F843200C46DDF820900AB1013302
:103D7C0033602368990642BF336802333360256889
:103D8C0015F0060506D104F1190AE36832689B1A8E
:103D9C00AB422BDC94F843302268003B18BF012364
:103DAC00920630D44146384604F14302C8470130EC
:103DBC0023D02368226903F00603042B14BF0025CB
:103DCC0033684FF0000608BFE56804F11A0408BF19
:103DDC00ED1A54F8123C08BF25EAE5759342C4BFAE
:103DEC009B1AED18B5421AD1002008E00123524667
:103DFC0041463846C847013003D14FF0FF30BDE88B
:103E0C00F0870135C1E73020E11881F843005A1CD6
:103E1C0094F845102244023382F84310C2E7012380
:103E2C00224641463846C8470130E6D00136D9E72C
:103E3C002DE9FF470F7E9146782F80460C469A4617
:103E4C000C9E01F1430207D8622F0AD8002F00F014
:103E5C00D180582F00F0B88004F1420684F84270EB
:103E6C003AE0A7F16303152BF6D801A151F823F022
:103E7C00D53E0008E93E0008653E0008653E000896
:103E8C00653E0008653E0008E93E0008653E0008F6
:103E9C00653E0008653E0008653E0008E73F0008E7
:103EAC00133F0008A13F0008653E0008653E00086E
:103EBC0009400008653E0008133F0008653E0008F5
:103ECC00653E0008A93F000833681A1D1B68326064
:103EDC0004F1420684F8423001239CE033682068E8
:103EEC00191D3160060601D51D6803E04506FBD59A
:103EFC00B3F90050002D03DA2D236D4284F84330C2
:103F0C000A23584811E021683368080653F8045B0B
:103F1C0002D4490648BFADB26F2F336014BF0A23D9
:103F2C0008235048002184F843106668002EA660D0
:103F3C0005DB21682E4321F0040121604BD016468D
:103F4C00B5FBF3F103FB1157C75D06F8017D2F4656
:103F5C00BB420D46F4D9082B0BD12368DF0708D5DB
:103F6C00236961689942DEBF302306F8013C06F1F3
:103F7C00FF36921B22614B4621464046CDF800A0ED
:103F8C0003AAFFF7E3FE01304AD14FF0FF3004B033
:103F9C00BDE8F087236843F020032360782732487C
:103FAC0084F84570236831681F0651F8045B02D40D
:103FBC005F0648BFADB23160D90744BF43F0200360
:103FCC0023601DB11023ADE72648E9E7236823F0F1
:103FDC0020032360F6E71646BDE733682568181DF5
:103FEC00616930602E061B6801D5196002E0680615
:103FFC00FBD51980002316462361BCE733680021EA
:10400C001A1D32601E6862683046FFF721FC08B149
:10401C00801B606063682361002384F84330AAE747
:10402C003246494640462369D0470130ADD023681B
:10403C009B0713D4E068039B9842B8BF1846A6E7C9
:10404C000123324649464046D04701309DD00135C8
:10405C00E36803995B1AAB42F2DCEBE7002504F151
:10406C001906F5E70B4500081C450008F8B50E4687
:10407C001446054618B1036A0BB9FEF7E3FCA369B5
:10408C00A360A3891A0701D5236943B921462846A1
:10409C0000F02AF818B14FF0FF373846F8BD236806
:1040AC002269F6B2981A63693746834205DC2146C9
:1040BC002846FFF711FB0028EDD1A368013BA36054
:1040CC0023685A1C22601E706269431C9A4204D0F9
:1040DC00A389DB07E1D50A2EDFD121462846FFF75D
:1040EC00FBFA0028D9D0D6E738B5294B0546186815
:1040FC000C4618B1036A0BB9FEF7A4FCB4F90C30EA
:10410C00190722D4DA0607D409222A6043F04003A7
:10411C004FF0FF30A38133E0580712D5616B41B1EA
:10412C0004F14403994202D02846FEF73DFE0023D9
:10413C006363A38923F02403A381002363602369B1
:10414C002360A38943F00803A38123694BB9A38996
:10415C0003F42073B3F5007F03D02146284600F00A
:10416C008AF8B4F90C3013F001020AD00022A260D4
:10417C0062695242A261226942B913F08000C5D132
:10418C0038BD990758BF6269A260F4E70020F7E7D1
:10419C001C0000201F2938B505460C4604D91623EF
:1041AC0003604FF0FF3038BDC26B12B152F82130B2
:1041BC004BB9284600F030F8224601462846BDE8A7
:1041CC00384000F017B8012B0AD0591C03D1162324
:1041DC0003600120E7E70021204642F824109847AD
:1041EC000020E0E7024B01461868FFF7D3BF00BF81
:1041FC001C00002038B50023064D04460846114625
:10420C002B60FCF7D4FB431C02D12B6803B1236059
:10421C0038BD00BF38040020FCF7C2BB51F8043C89
:10422C00181F002BBCBF0B58C018704770B50C463C
:10423C00B1F90E10154600291E4696B00CDAA3896A
:10424C00002113F0800F14BF40234FF48063002033
:10425C0031602B6016B070BD6A4600F049F800283A
:10426C00EDDB019901F47041A1F50053594259411C
:10427C004FF48063EBE78B89F7B59D0706460C4638
:10428C0007D504F14703236023610123636103B065
:10429C00F0BD6A4601ABFFF7C9FF009F05463946E2
:1042AC003046FEF7F3FD48B9B4F90C309A05EED45C
:1042BC0023F0030343F00203A381E2E7A389C4E9DB
:1042CC00040743F08003A381019B20605BB130465F
:1042DC00B4F90E1000F01EF828B1A38923F00303E3
:1042EC0043F00103A381A3891D43A581CFE70000FF
:1042FC0038B50023064D0446084611462B60FCF7E2
:10430C00B5FB431C02D12B6803B1236038BD00BF41
:10431C003804002038B50023054D044608462B60B0
:10432C00FCF7B3FB431C02D12B6803B1236038BDEF
:10433C0038040020F8B500BFF8BC08BC9E46704796
:0C434C00F8B500BFF8BC08BC9E467047E6
:104358002C00000022255B5E225D223A22255B5E4E
:10436800225D22006370755F737461747573000059
:10437800424F4F5400000000424F4F544544000044
:104388007265616465725F737461747573000000AF
:10439800494E4143544956450000000041435449A1
:1043A80056450000646174615F72656164696E6797
:1043B800000000006E6574776F726B004F46464CC4
:1043C800494E45004C414E005749464900000000FF
:1043D8006672657175656E63790000003130303042
:1043E80000000000353030006572726F7200000006
:1043F8004F4B0A00F5440008F8440008FB44000845
:10440800000000000000000001020304060708097C
:10441800000000000102030402030405060708095E
:104428000A0B0C0D0E0F101001025245454E542078
:104438006D616C6C6F632073756363656564656437
:10444800002F6275696C642F676E752D746F6F6CC1
:10445800732D666F722D73746D33325F31332E3363
:104468002E72656C312E32303234303932362D317D
:104478003731352F7372632F6E65776C69622F6ED3
:1044880065776C69622F6C6962632F737472696EE9
:10449800672F737472746F6B2E63002C2066756EB1
:1044A8006374696F6E3A2000617373657274696F23
:1044B8006E2022257322206661696C65643A206645
:1044C800696C6520222573222C206C696E65202575
:1044D80064257325730A00686C4C00412D46612DD4
:1044E80066383930313233343536375D002B2D009C
:1044F800303000785800232D302B20006566674542
:104508004647003031323334353637383941424343
:1045180044454600303132333435363738396162F4
:1045280063646566000020202020202020202028A9
:104538002828282820202020202020202020202053
:10454800202020202020881010101010101010108B
:1045580010101010101004040404040404040404CB
:10456800101010101010104141414141410101014A
:104578000101010101010101010101010101010123
:104588000110101010101042424242424202020230
:1045980002020202020202020202020202020202F3
:1045A80002101010102000000000000000000000A1
:1045B80000000000000000000000000000000000F3
:1045C80000000000000000000000000000000000E3
:1045D80000000000000000000000000000000000D3
:1045E80000000000000000000000000000000000C3
:1045F80000000000000000000000000000000000B3
:1046080000000000000000000000000000000000A2
:104618000000000000000000000000000000000092
:0846280000000000000000008A
:084630001CBBFF7F010000002C
:044638003101000844
:04463C000D01000864
:104640000100000000127A001000000001000000CC
:104650000000000003000000FC02002020000020F9
:1046600000000000FC02002064030020CC030020B6
:10467000000000000000000000000000000000003A
:10468000000000000000000000000000000000002A
:10469000000000000000000000000000000000001A
:0C46A0000000000000000000000000000E
:0400000508000C35AE
:00000001FF
